:100000000C942A000C9447000C9447000C94E900CF
:100010000C9447000C9447000C9447000C94470044
:100020000C9447000C9447000C9447000C94490032
:100030000C9472000C9447000C9447000C944700F9
:100040000C9447000C9447000C9447000C94470014
:100050000C94470011241FBECFE5D4E0DEBFCDBF16
:1000600010E0A0E6B0E0EAE1F5E002C005900D92F4
:10007000A637B107D9F711E0A6E7B0E001C01D929D
:10008000A93CB107E1F70E942C020C948B020C945E
:1000900000001F920F920FB60F9211242F938F938F
:1000A0009F93EF93FF939BB12CB1E0919F01EF5F82
:1000B0008091A001E81711F482E008C0892F8871AF
:1000C000E0939F01F0E0E356FF4F20838093A1016E
:1000D000FF91EF919F918F912F910F900FBE0F90F5
:1000E0001F9018951F920F920FB60F9211248F93A5
:1000F0009F93EF93FF9390919D0180919E0198179C
:1001000061F0E0919E01EF5FEF71E0939E01F0E0FE
:10011000E358FF4F80818CB901C05598FF91EF9152
:100120009F918F910F900FBE0F901F901895109276
:100130009F011092A00108959C0110929D011092C0
:100140009E0110929F011092A00197FF03C082E0D0
:100150008BB93F7730BD29B988E98AB986E880BD77
:10016000089590919F018091A001981719F420E0C3
:1001700031E011C0E091A001EF5FE093A001F0E059
:10018000E356FF4F30812091A101922F80E0AC0116
:10019000430F511D9A01C90108955D9BFECF8CB993
:1001A00008955D9BFECF8CB90895FC0104C05D9B52
:1001B000FECF31968CB980818823C9F7089503C09A
:1001C0005D9BFECF2CB9FC01019624912223C1F73F
:1001D00008951F920F920FB60F9211248F939F9341
:1001E000EF93FF938091C401882329F18091C50189
:1001F0008150F9F48091C7019091C80180FF02C03D
:10020000DA9A01C0DA988091C7019091C801969559
:1002100087959093C8018093C7018091C601815052
:100220008093C6018091C601882311F41092C40105
:1002300083E08093C5018091C201882309F05AC0F0
:1002400080917C00882301F180917A008150809315
:100250007A00882309F04EC010927C001092C301EE
:10026000E0917600F0E080917800EE55FE4F8083BB
:10027000809176008F5F8093760080917600803247
:10028000C8F11092760036C08091C301882381F4B2
:10029000C89930C081E08093C3011092780094E047
:1002A00090937A0098E09093790080937B0022C02D
:1002B00080917A00815080937A008823D9F483E07A
:1002C00080937A00C89B07C08091780090917B0052
:1002D000892B8093780080917B00880F80937B002E
:1002E00080917900815080937900882319F481E00E
:1002F00080937C00FF91EF919F918F910F900FBEA3
:100300000F901F9018951092760010927700089524
:100310001092C4011092C3011092C201DA9AD29ACB
:10032000D0989FB7F8948FE183BD8AE085BD89B7E7
:10033000806889BF14BC9FBF1092C201089513BC8E
:1003400015BC19BE14BCD298D09A08951092C2015F
:10035000089581E08093C201089590917700809183
:1003600076009817E1F3E92FF0E0EE55FE4FE081BB
:10037000892F8F5F80937700803210F01092770082
:100380008E2F08959091760020E080917700981349
:1003900021E0822F08951092760010927700089540
:1003A0008091C4010895982F8091C4018823E1F7BA
:1003B00083E08093C5018AE08093C601892F90E095
:1003C000880F991F92609093C8018093C70181E0C4
:1003D0008093C4010895CF93DF93EC0103C021966D
:1003E0000E94D30188818823D1F7DF91CF910895AE
:1003F000CF93DF93EC0102C00E94D301FE0121964E
:1004000084918823C9F7DF91CF9108950F931F93AB
:10041000CF93DF938C01C0E0D0E00E94AD01F801E2
:10042000EC0FFD1F8D3019F080832196F6CF1082DE
:10043000DF91CF911F910F9108958FEF84BB8FE2D1
:1004400090E00E949C0078940E948801789480E655
:1004500090E00E94EB010895CF92DF92EF92FF921D
:100460000F931F93DF93CF93CDB7DEB727970FB6C8
:10047000F894DEBF0FBECDBF8FEF81BB84BBDE0122
:100480001196EEE6F0E087E001900D928150E1F7E1
:100490000E941D0280E197E228EB30E0F9013197DC
:1004A000F1F70197D9F7EE24FF2400E010E06E0188
:1004B0000894C11CD11C04C0EE24FF2400E010E00D
:1004C0000E94B1009C0190FDFBCFF601E00FF11FEF
:1004D000808190E08217930779F70894E11CF11C62
:1004E00086E0E816F10419F00F5F1F4FE9CFC6014F
:1004F0000E94EB01AB9A0E94B10090FDFCCF8432C8
:10050000910519F00E94D301F6CF8CE690E00E948D
:0A051000EB01AA9AD3CFF894FFCFB5
:10051A00696E697469616C697A65640024002447AC
:06052A0050524D43000099
:00000001FF
